{
  "_format": "hh-sol-artifact-1",
  "contractName": "ColorBoard",
  "sourceName": "contracts/Board.sol",
  "abi": [
    {
      "inputs": [],
      "stateMutability": "nonpayable",
      "type": "constructor"
    },
    {
      "inputs": [],
      "name": "BOARD_SIZE_X",
      "outputs": [
        {
          "internalType": "uint256",
          "name": "",
          "type": "uint256"
        }
      ],
      "stateMutability": "view",
      "type": "function"
    },
    {
      "inputs": [],
      "name": "BOARD_SIZE_Y",
      "outputs": [
        {
          "internalType": "uint256",
          "name": "",
          "type": "uint256"
        }
      ],
      "stateMutability": "view",
      "type": "function"
    },
    {
      "inputs": [
        {
          "internalType": "uint256",
          "name": "",
          "type": "uint256"
        },
        {
          "internalType": "uint256",
          "name": "",
          "type": "uint256"
        }
      ],
      "name": "board",
      "outputs": [
        {
          "internalType": "string",
          "name": "",
          "type": "string"
        }
      ],
      "stateMutability": "view",
      "type": "function"
    },
    {
      "inputs": [
        {
          "internalType": "uint256",
          "name": "",
          "type": "uint256"
        }
      ],
      "name": "colors",
      "outputs": [
        {
          "internalType": "string",
          "name": "",
          "type": "string"
        }
      ],
      "stateMutability": "view",
      "type": "function"
    },
    {
      "inputs": [
        {
          "internalType": "uint256",
          "name": "x",
          "type": "uint256"
        },
        {
          "internalType": "uint256",
          "name": "y",
          "type": "uint256"
        }
      ],
      "name": "getColor",
      "outputs": [
        {
          "internalType": "string",
          "name": "",
          "type": "string"
        }
      ],
      "stateMutability": "view",
      "type": "function"
    },
    {
      "inputs": [
        {
          "internalType": "uint256",
          "name": "x",
          "type": "uint256"
        },
        {
          "internalType": "uint256",
          "name": "y",
          "type": "uint256"
        },
        {
          "internalType": "uint256",
          "name": "color",
          "type": "uint256"
        }
      ],
      "name": "setColor",
      "outputs": [],
      "stateMutability": "nonpayable",
      "type": "function"
    }
  ],
  "bytecode": "0x60806040523480156200001157600080fd5b506040518060400160405280600581526020017f576869746500000000000000000000000000000000000000000000000000000081525060008060018152602001908152602001600020908051906020019062000070929190620001dc565b506040518060400160405280600581526020017f426c61636b000000000000000000000000000000000000000000000000000000815250600080600281526020019081526020016000209080519060200190620000cf929190620001dc565b506040518060400160405280600381526020017f52656400000000000000000000000000000000000000000000000000000000008152506000806003815260200190815260200160002090805190602001906200012e929190620001dc565b506040518060400160405280600581526020017f426c61636b0000000000000000000000000000000000000000000000000000008152506000806004815260200190815260200160002090805190602001906200018d929190620001dc565b5060005b6007811015620001d55760005b6005811015620001be578080620001b590620002c5565b9150506200019e565b508080620001cc90620002c5565b91505062000191565b5062000376565b828054620001ea9062000341565b90600052602060002090601f0160209004810192826200020e57600085556200025a565b82601f106200022957805160ff19168380011785556200025a565b828001600101855582156200025a579182015b82811115620002595782518255916020019190600101906200023c565b5b5090506200026991906200026d565b5090565b5b80821115620002885760008160009055506001016200026e565b5090565b7f4e487b7100000000000000000000000000000000000000000000000000000000600052601160045260246000fd5b6000819050919050565b6000620002d282620002bb565b91507fffffffffffffffffffffffffffffffffffffffffffffffffffffffffffffffff82036200030757620003066200028c565b5b600182019050919050565b7f4e487b7100000000000000000000000000000000000000000000000000000000600052602260045260246000fd5b600060028204905060018216806200035a57607f821691505b60208210810362000370576200036f62000312565b5b50919050565b6109a980620003866000396000f3fe608060405234801561001057600080fd5b50600436106100625760003560e01c806356324c74146100675780635e5690f7146100855780638086a92a146100a3578063bd11f69d146100d3578063eded5d9e14610103578063fbedb98014610133575b600080fd5b61006f61014f565b60405161007c91906105d9565b60405180910390f35b61008d610154565b60405161009a91906105d9565b60405180910390f35b6100bd60048036038101906100b89190610625565b610159565b6040516100ca91906106fe565b60405180910390f35b6100ed60048036038101906100e89190610720565b61020f565b6040516100fa91906106fe565b60405180910390f35b61011d60048036038101906101189190610625565b6102af565b60405161012a91906106fe565b60405180910390f35b61014d6004803603810190610148919061074d565b6103f3565b005b600581565b600781565b6001826005811061016957600080fd5b60070201816007811061017b57600080fd5b0160009150915050805461018e906107cf565b80601f01602080910402602001604051908101604052809291908181526020018280546101ba906107cf565b80156102075780601f106101dc57610100808354040283529160200191610207565b820191906000526020600020905b8154815290600101906020018083116101ea57829003601f168201915b505050505081565b6000602052806000526040600020600091509050805461022e906107cf565b80601f016020809104026020016040519081016040528092919081815260200182805461025a906107cf565b80156102a75780601f1061027c576101008083540402835291602001916102a7565b820191906000526020600020905b81548152906001019060200180831161028a57829003601f168201915b505050505081565b6060600783106102f4576040517f08c379a00000000000000000000000000000000000000000000000000000000081526004016102eb9061084c565b60405180910390fd5b60058210610337576040517f08c379a000000000000000000000000000000000000000000000000000000000815260040161032e906108b8565b60405180910390fd5b6001836005811061034b5761034a6108d8565b5b600702018260078110610361576103606108d8565b5b01805461036d906107cf565b80601f0160208091040260200160405190810160405280929190818152602001828054610399906107cf565b80156103e65780601f106103bb576101008083540402835291602001916103e6565b820191906000526020600020905b8154815290600101906020018083116103c957829003601f168201915b5050505050905092915050565b60078310610436576040517f08c379a000000000000000000000000000000000000000000000000000000000815260040161042d9061084c565b60405180910390fd5b60058210610479576040517f08c379a0000000000000000000000000000000000000000000000000000000008152600401610470906108b8565b60405180910390fd5b600381106104bc576040517f08c379a00000000000000000000000000000000000000000000000000000000081526004016104b390610953565b60405180910390fd5b600080828152602001908152602001600020600184600581106104e2576104e16108d8565b5b6007020183600781106104f8576104f76108d8565b5b01908054610505906107cf565b610510929190610516565b50505050565b828054610522906107cf565b90600052602060002090601f0160209004810192826105445760008555610592565b82601f106105555780548555610592565b8280016001018555821561059257600052602060002091601f016020900482015b82811115610591578254825591600101919060010190610576565b5b50905061059f91906105a3565b5090565b5b808211156105bc5760008160009055506001016105a4565b5090565b6000819050919050565b6105d3816105c0565b82525050565b60006020820190506105ee60008301846105ca565b92915050565b600080fd5b610602816105c0565b811461060d57600080fd5b50565b60008135905061061f816105f9565b92915050565b6000806040838503121561063c5761063b6105f4565b5b600061064a85828601610610565b925050602061065b85828601610610565b9150509250929050565b600081519050919050565b600082825260208201905092915050565b60005b8381101561069f578082015181840152602081019050610684565b838111156106ae576000848401525b50505050565b6000601f19601f8301169050919050565b60006106d082610665565b6106da8185610670565b93506106ea818560208601610681565b6106f3816106b4565b840191505092915050565b6000602082019050818103600083015261071881846106c5565b905092915050565b600060208284031215610736576107356105f4565b5b600061074484828501610610565b91505092915050565b600080600060608486031215610766576107656105f4565b5b600061077486828701610610565b935050602061078586828701610610565b925050604061079686828701610610565b9150509250925092565b7f4e487b7100000000000000000000000000000000000000000000000000000000600052602260045260246000fd5b600060028204905060018216806107e757607f821691505b6020821081036107fa576107f96107a0565b5b50919050565b7f496e76616c6964205820636f6f7264696e617465000000000000000000000000600082015250565b6000610836601483610670565b915061084182610800565b602082019050919050565b6000602082019050818103600083015261086581610829565b9050919050565b7f496e76616c6964205920636f6f7264696e617465000000000000000000000000600082015250565b60006108a2601483610670565b91506108ad8261086c565b602082019050919050565b600060208201905081810360008301526108d181610895565b9050919050565b7f4e487b7100000000000000000000000000000000000000000000000000000000600052603260045260246000fd5b7f496e76616c696420636f6c6f7200000000000000000000000000000000000000600082015250565b600061093d600d83610670565b915061094882610907565b602082019050919050565b6000602082019050818103600083015261096c81610930565b905091905056fea2646970667358221220aca004cdf9fb3041719346a9c26ae8056d355875a40222c905955c389288f04e64736f6c634300080d0033",
  "linkReferences": {},
  "deployedLinkReferences": {}
}